{
  "_format": "hh-sol-artifact-1",
  "contractName": "FSCS",
  "sourceName": "contracts/FSCS.sol",
  "abi": [
    {
      "inputs": [
        {
          "internalType": "contract IUniswapV3Pool",
          "name": "Pool_",
          "type": "address"
        },
        {
          "internalType": "uint256",
          "name": "bottom",
          "type": "uint256"
        },
        {
          "internalType": "uint256",
          "name": "ref",
          "type": "uint256"
        },
        {
          "internalType": "uint256",
          "name": "gridNum",
          "type": "uint256"
        }
      ],
      "stateMutability": "nonpayable",
      "type": "constructor"
    },
    {
      "inputs": [
        {
          "internalType": "address",
          "name": "spender",
          "type": "address"
        },
        {
          "internalType": "uint256",
          "name": "allowance",
          "type": "uint256"
        },
        {
          "internalType": "uint256",
          "name": "needed",
          "type": "uint256"
        }
      ],
      "name": "ERC20InsufficientAllowance",
      "type": "error"
    },
    {
      "inputs": [
        {
          "internalType": "address",
          "name": "sender",
          "type": "address"
        },
        {
          "internalType": "uint256",
          "name": "balance",
          "type": "uint256"
        },
        {
          "internalType": "uint256",
          "name": "needed",
          "type": "uint256"
        }
      ],
      "name": "ERC20InsufficientBalance",
      "type": "error"
    },
    {
      "inputs": [
        {
          "internalType": "address",
          "name": "approver",
          "type": "address"
        }
      ],
      "name": "ERC20InvalidApprover",
      "type": "error"
    },
    {
      "inputs": [
        {
          "internalType": "address",
          "name": "receiver",
          "type": "address"
        }
      ],
      "name": "ERC20InvalidReceiver",
      "type": "error"
    },
    {
      "inputs": [
        {
          "internalType": "address",
          "name": "sender",
          "type": "address"
        }
      ],
      "name": "ERC20InvalidSender",
      "type": "error"
    },
    {
      "inputs": [
        {
          "internalType": "address",
          "name": "spender",
          "type": "address"
        }
      ],
      "name": "ERC20InvalidSpender",
      "type": "error"
    },
    {
      "inputs": [
        {
          "internalType": "address",
          "name": "receiver",
          "type": "address"
        },
        {
          "internalType": "uint256",
          "name": "assets",
          "type": "uint256"
        },
        {
          "internalType": "uint256",
          "name": "max",
          "type": "uint256"
        }
      ],
      "name": "ERC4626ExceededMaxDeposit",
      "type": "error"
    },
    {
      "inputs": [
        {
          "internalType": "address",
          "name": "receiver",
          "type": "address"
        },
        {
          "internalType": "uint256",
          "name": "shares",
          "type": "uint256"
        },
        {
          "internalType": "uint256",
          "name": "max",
          "type": "uint256"
        }
      ],
      "name": "ERC4626ExceededMaxMint",
      "type": "error"
    },
    {
      "inputs": [
        {
          "internalType": "address",
          "name": "owner",
          "type": "address"
        },
        {
          "internalType": "uint256",
          "name": "shares",
          "type": "uint256"
        },
        {
          "internalType": "uint256",
          "name": "max",
          "type": "uint256"
        }
      ],
      "name": "ERC4626ExceededMaxRedeem",
      "type": "error"
    },
    {
      "inputs": [
        {
          "internalType": "address",
          "name": "owner",
          "type": "address"
        },
        {
          "internalType": "uint256",
          "name": "assets",
          "type": "uint256"
        },
        {
          "internalType": "uint256",
          "name": "max",
          "type": "uint256"
        }
      ],
      "name": "ERC4626ExceededMaxWithdraw",
      "type": "error"
    },
    {
      "inputs": [
        {
          "internalType": "address",
          "name": "token",
          "type": "address"
        }
      ],
      "name": "SafeERC20FailedOperation",
      "type": "error"
    },
    {
      "anonymous": false,
      "inputs": [
        {
          "indexed": true,
          "internalType": "address",
          "name": "owner",
          "type": "address"
        },
        {
          "indexed": true,
          "internalType": "address",
          "name": "spender",
          "type": "address"
        },
        {
          "indexed": false,
          "internalType": "uint256",
          "name": "value",
          "type": "uint256"
        }
      ],
      "name": "Approval",
      "type": "event"
    },
    {
      "anonymous": false,
      "inputs": [
        {
          "indexed": false,
          "internalType": "uint256",
          "name": "price",
          "type": "uint256"
        },
        {
          "indexed": false,
          "internalType": "uint256",
          "name": "amount",
          "type": "uint256"
        }
      ],
      "name": "Buy",
      "type": "event"
    },
    {
      "anonymous": false,
      "inputs": [
        {
          "indexed": true,
          "internalType": "address",
          "name": "sender",
          "type": "address"
        },
        {
          "indexed": true,
          "internalType": "address",
          "name": "owner",
          "type": "address"
        },
        {
          "indexed": false,
          "internalType": "uint256",
          "name": "assets",
          "type": "uint256"
        },
        {
          "indexed": false,
          "internalType": "uint256",
          "name": "shares",
          "type": "uint256"
        }
      ],
      "name": "Deposit",
      "type": "event"
    },
    {
      "anonymous": false,
      "inputs": [
        {
          "indexed": false,
          "internalType": "uint256",
          "name": "price",
          "type": "uint256"
        },
        {
          "indexed": false,
          "internalType": "uint256",
          "name": "amount",
          "type": "uint256"
        }
      ],
      "name": "Sell",
      "type": "event"
    },
    {
      "anonymous": false,
      "inputs": [
        {
          "indexed": true,
          "internalType": "address",
          "name": "from",
          "type": "address"
        },
        {
          "indexed": true,
          "internalType": "address",
          "name": "to",
          "type": "address"
        },
        {
          "indexed": false,
          "internalType": "uint256",
          "name": "value",
          "type": "uint256"
        }
      ],
      "name": "Transfer",
      "type": "event"
    },
    {
      "anonymous": false,
      "inputs": [
        {
          "indexed": true,
          "internalType": "address",
          "name": "sender",
          "type": "address"
        },
        {
          "indexed": true,
          "internalType": "address",
          "name": "receiver",
          "type": "address"
        },
        {
          "indexed": true,
          "internalType": "address",
          "name": "owner",
          "type": "address"
        },
        {
          "indexed": false,
          "internalType": "uint256",
          "name": "assets",
          "type": "uint256"
        },
        {
          "indexed": false,
          "internalType": "uint256",
          "name": "shares",
          "type": "uint256"
        }
      ],
      "name": "Withdraw",
      "type": "event"
    },
    {
      "inputs": [],
      "name": "BOTTOM",
      "outputs": [
        {
          "internalType": "uint256",
          "name": "",
          "type": "uint256"
        }
      ],
      "stateMutability": "view",
      "type": "function"
    },
    {
      "inputs": [],
      "name": "GRID_NUM",
      "outputs": [
        {
          "internalType": "uint256",
          "name": "",
          "type": "uint256"
        }
      ],
      "stateMutability": "view",
      "type": "function"
    },
    {
      "inputs": [],
      "name": "REFERENCE",
      "outputs": [
        {
          "internalType": "uint256",
          "name": "",
          "type": "uint256"
        }
      ],
      "stateMutability": "view",
      "type": "function"
    },
    {
      "inputs": [
        {
          "internalType": "address",
          "name": "owner",
          "type": "address"
        },
        {
          "internalType": "address",
          "name": "spender",
          "type": "address"
        }
      ],
      "name": "allowance",
      "outputs": [
        {
          "internalType": "uint256",
          "name": "",
          "type": "uint256"
        }
      ],
      "stateMutability": "view",
      "type": "function"
    },
    {
      "inputs": [
        {
          "internalType": "address",
          "name": "spender",
          "type": "address"
        },
        {
          "internalType": "uint256",
          "name": "value",
          "type": "uint256"
        }
      ],
      "name": "approve",
      "outputs": [
        {
          "internalType": "bool",
          "name": "",
          "type": "bool"
        }
      ],
      "stateMutability": "nonpayable",
      "type": "function"
    },
    {
      "inputs": [],
      "name": "asset",
      "outputs": [
        {
          "internalType": "address",
          "name": "",
          "type": "address"
        }
      ],
      "stateMutability": "view",
      "type": "function"
    },
    {
      "inputs": [],
      "name": "assetBalance",
      "outputs": [
        {
          "internalType": "uint256",
          "name": "",
          "type": "uint256"
        }
      ],
      "stateMutability": "view",
      "type": "function"
    },
    {
      "inputs": [
        {
          "internalType": "address",
          "name": "account",
          "type": "address"
        }
      ],
      "name": "balanceOf",
      "outputs": [
        {
          "internalType": "uint256",
          "name": "",
          "type": "uint256"
        }
      ],
      "stateMutability": "view",
      "type": "function"
    },
    {
      "inputs": [
        {
          "internalType": "uint256",
          "name": "shares",
          "type": "uint256"
        }
      ],
      "name": "convertToAssets",
      "outputs": [
        {
          "internalType": "uint256",
          "name": "",
          "type": "uint256"
        }
      ],
      "stateMutability": "view",
      "type": "function"
    },
    {
      "inputs": [
        {
          "internalType": "uint256",
          "name": "assets",
          "type": "uint256"
        }
      ],
      "name": "convertToShares",
      "outputs": [
        {
          "internalType": "uint256",
          "name": "",
          "type": "uint256"
        }
      ],
      "stateMutability": "view",
      "type": "function"
    },
    {
      "inputs": [],
      "name": "decimals",
      "outputs": [
        {
          "internalType": "uint8",
          "name": "",
          "type": "uint8"
        }
      ],
      "stateMutability": "view",
      "type": "function"
    },
    {
      "inputs": [
        {
          "internalType": "uint256",
          "name": "assets",
          "type": "uint256"
        },
        {
          "internalType": "address",
          "name": "receiver",
          "type": "address"
        }
      ],
      "name": "deposit",
      "outputs": [
        {
          "internalType": "uint256",
          "name": "",
          "type": "uint256"
        }
      ],
      "stateMutability": "nonpayable",
      "type": "function"
    },
    {
      "inputs": [],
      "name": "getTokenLevel",
      "outputs": [
        {
          "internalType": "uint256",
          "name": "",
          "type": "uint256"
        }
      ],
      "stateMutability": "view",
      "type": "function"
    },
    {
      "inputs": [],
      "name": "getTokenPrice",
      "outputs": [
        {
          "internalType": "uint256",
          "name": "",
          "type": "uint256"
        }
      ],
      "stateMutability": "view",
      "type": "function"
    },
    {
      "inputs": [],
      "name": "makeTransaction",
      "outputs": [],
      "stateMutability": "nonpayable",
      "type": "function"
    },
    {
      "inputs": [
        {
          "internalType": "address",
          "name": "",
          "type": "address"
        }
      ],
      "name": "maxDeposit",
      "outputs": [
        {
          "internalType": "uint256",
          "name": "",
          "type": "uint256"
        }
      ],
      "stateMutability": "view",
      "type": "function"
    },
    {
      "inputs": [
        {
          "internalType": "address",
          "name": "",
          "type": "address"
        }
      ],
      "name": "maxMint",
      "outputs": [
        {
          "internalType": "uint256",
          "name": "",
          "type": "uint256"
        }
      ],
      "stateMutability": "view",
      "type": "function"
    },
    {
      "inputs": [
        {
          "internalType": "address",
          "name": "owner",
          "type": "address"
        }
      ],
      "name": "maxRedeem",
      "outputs": [
        {
          "internalType": "uint256",
          "name": "",
          "type": "uint256"
        }
      ],
      "stateMutability": "view",
      "type": "function"
    },
    {
      "inputs": [
        {
          "internalType": "address",
          "name": "owner",
          "type": "address"
        }
      ],
      "name": "maxWithdraw",
      "outputs": [
        {
          "internalType": "uint256",
          "name": "",
          "type": "uint256"
        }
      ],
      "stateMutability": "view",
      "type": "function"
    },
    {
      "inputs": [
        {
          "internalType": "uint256",
          "name": "shares",
          "type": "uint256"
        },
        {
          "internalType": "address",
          "name": "receiver",
          "type": "address"
        }
      ],
      "name": "mint",
      "outputs": [
        {
          "internalType": "uint256",
          "name": "",
          "type": "uint256"
        }
      ],
      "stateMutability": "nonpayable",
      "type": "function"
    },
    {
      "inputs": [],
      "name": "name",
      "outputs": [
        {
          "internalType": "string",
          "name": "",
          "type": "string"
        }
      ],
      "stateMutability": "view",
      "type": "function"
    },
    {
      "inputs": [],
      "name": "poolAddress",
      "outputs": [
        {
          "internalType": "address",
          "name": "",
          "type": "address"
        }
      ],
      "stateMutability": "view",
      "type": "function"
    },
    {
      "inputs": [
        {
          "internalType": "uint256",
          "name": "assets",
          "type": "uint256"
        }
      ],
      "name": "previewDeposit",
      "outputs": [
        {
          "internalType": "uint256",
          "name": "",
          "type": "uint256"
        }
      ],
      "stateMutability": "view",
      "type": "function"
    },
    {
      "inputs": [
        {
          "internalType": "uint256",
          "name": "shares",
          "type": "uint256"
        }
      ],
      "name": "previewMint",
      "outputs": [
        {
          "internalType": "uint256",
          "name": "",
          "type": "uint256"
        }
      ],
      "stateMutability": "view",
      "type": "function"
    },
    {
      "inputs": [
        {
          "internalType": "uint256",
          "name": "shares",
          "type": "uint256"
        }
      ],
      "name": "previewRedeem",
      "outputs": [
        {
          "internalType": "uint256",
          "name": "",
          "type": "uint256"
        }
      ],
      "stateMutability": "view",
      "type": "function"
    },
    {
      "inputs": [
        {
          "internalType": "uint256",
          "name": "assets",
          "type": "uint256"
        }
      ],
      "name": "previewWithdraw",
      "outputs": [
        {
          "internalType": "uint256",
          "name": "",
          "type": "uint256"
        }
      ],
      "stateMutability": "view",
      "type": "function"
    },
    {
      "inputs": [],
      "name": "previousLevel",
      "outputs": [
        {
          "internalType": "uint256",
          "name": "",
          "type": "uint256"
        }
      ],
      "stateMutability": "view",
      "type": "function"
    },
    {
      "inputs": [
        {
          "internalType": "uint256",
          "name": "shares",
          "type": "uint256"
        },
        {
          "internalType": "address",
          "name": "receiver",
          "type": "address"
        },
        {
          "internalType": "address",
          "name": "owner",
          "type": "address"
        }
      ],
      "name": "redeem",
      "outputs": [
        {
          "internalType": "uint256",
          "name": "",
          "type": "uint256"
        }
      ],
      "stateMutability": "nonpayable",
      "type": "function"
    },
    {
      "inputs": [],
      "name": "symbol",
      "outputs": [
        {
          "internalType": "string",
          "name": "",
          "type": "string"
        }
      ],
      "stateMutability": "view",
      "type": "function"
    },
    {
      "inputs": [],
      "name": "targetAddress",
      "outputs": [
        {
          "internalType": "address",
          "name": "",
          "type": "address"
        }
      ],
      "stateMutability": "view",
      "type": "function"
    },
    {
      "inputs": [],
      "name": "targetBalance",
      "outputs": [
        {
          "internalType": "uint256",
          "name": "",
          "type": "uint256"
        }
      ],
      "stateMutability": "view",
      "type": "function"
    },
    {
      "inputs": [],
      "name": "totalAssets",
      "outputs": [
        {
          "internalType": "uint256",
          "name": "",
          "type": "uint256"
        }
      ],
      "stateMutability": "view",
      "type": "function"
    },
    {
      "inputs": [],
      "name": "totalSupply",
      "outputs": [
        {
          "internalType": "uint256",
          "name": "",
          "type": "uint256"
        }
      ],
      "stateMutability": "view",
      "type": "function"
    },
    {
      "inputs": [
        {
          "internalType": "address",
          "name": "to",
          "type": "address"
        },
        {
          "internalType": "uint256",
          "name": "value",
          "type": "uint256"
        }
      ],
      "name": "transfer",
      "outputs": [
        {
          "internalType": "bool",
          "name": "",
          "type": "bool"
        }
      ],
      "stateMutability": "nonpayable",
      "type": "function"
    },
    {
      "inputs": [
        {
          "internalType": "address",
          "name": "from",
          "type": "address"
        },
        {
          "internalType": "address",
          "name": "to",
          "type": "address"
        },
        {
          "internalType": "uint256",
          "name": "value",
          "type": "uint256"
        }
      ],
      "name": "transferFrom",
      "outputs": [
        {
          "internalType": "bool",
          "name": "",
          "type": "bool"
        }
      ],
      "stateMutability": "nonpayable",
      "type": "function"
    },
    {
      "inputs": [
        {
          "internalType": "int256",
          "name": "amount0Delta",
          "type": "int256"
        },
        {
          "internalType": "int256",
          "name": "amount1Delta",
          "type": "int256"
        },
        {
          "internalType": "bytes",
          "name": "data",
          "type": "bytes"
        }
      ],
      "name": "uniswapV3SwapCallback",
      "outputs": [],
      "stateMutability": "nonpayable",
      "type": "function"
    },
    {
      "inputs": [
        {
          "internalType": "uint256",
          "name": "assets",
          "type": "uint256"
        },
        {
          "internalType": "address",
          "name": "receiver",
          "type": "address"
        },
        {
          "internalType": "address",
          "name": "owner",
          "type": "address"
        }
      ],
      "name": "withdraw",
      "outputs": [
        {
          "internalType": "uint256",
          "name": "",
          "type": "uint256"
        }
      ],
      "stateMutability": "nonpayable",
      "type": "function"
    }
  ],
  "bytecode": "0x61016060405234801561001157600080fd5b5060405161284e38038061284e83398101604081905261003091610494565b836001600160a01b031663d21220a76040518163ffffffff1660e01b8152600401602060405180830381865afa15801561006e573d6000803e3d6000fd5b505050506040513d601f19601f8201168201806040525081019061009291906104d3565b6040805180820182526004808252634653435360e01b60208084018290528451808601909552918452908301529060036100cc8382610596565b5060046100d98282610596565b5050506000806100ee8361021160201b60201c565b91509150816100fe576012610100565b805b60ff1660a05250506001600160a01b0316608052836001600160a01b0316630dfe16816040518163ffffffff1660e01b8152600401602060405180830381865afa158015610152573d6000803e3d6000fd5b505050506040513d601f19601f8201168201806040525081019061017691906104d3565b6001600160a01b0390811660c052841660e0526101208390526101008290526101408190526101a681600161066a565b6001600160401b038111156101bd576101bd6104f7565b6040519080825280602002602001820160405280156101e6578160200160208202803683370190505b5080516101fb91600591602090910190610425565b506102046102ed565b600655506107d292505050565b60408051600481526024810182526020810180516001600160e01b031663313ce56760e01b17905290516000918291829182916001600160a01b0387169161025891610683565b600060405180830381855afa9150503d8060008114610293576040519150601f19603f3d011682016040523d82523d6000602084013e610298565b606091505b50915091508180156102ac57506020815110155b156102e0576000818060200190518101906102c791906106b2565b905060ff81116102de576001969095509350505050565b505b5060009485945092505050565b6000806102f861035e565b905061010051811061030d5750506101405190565b6101205181101561032057600091505090565b610120516101005161033291906106cb565b6101205161034090836106cb565b6101405161034e91906106de565b61035891906106f5565b91505090565b60008060e0516001600160a01b0316633850c7bd6040518163ffffffff1660e01b815260040160e060405180830381865afa1580156103a1573d6000803e3d6000fd5b505050506040513d601f19601f820116820180604052508101906103c5919061072e565b5050505050506001600160a01b031690506000156104005780680100000000000000006103f682600160c01b6106f5565b61034e91906106de565b61041768010000000000000000600160c01b6106f5565b61034e82806106de565b5090565b828054828255906000526020600020908101928215610460579160200282015b82811115610460578251825591602001919060010190610445565b506104219291505b808211156104215760008155600101610468565b6001600160a01b038116811461049157600080fd5b50565b600080600080608085870312156104aa57600080fd5b84516104b58161047c565b60208601516040870151606090970151919890975090945092505050565b6000602082840312156104e557600080fd5b81516104f08161047c565b9392505050565b634e487b7160e01b600052604160045260246000fd5b600181811c9082168061052157607f821691505b60208210810361054157634e487b7160e01b600052602260045260246000fd5b50919050565b601f82111561059157806000526020600020601f840160051c8101602085101561056e5750805b601f840160051c820191505b8181101561058e576000815560010161057a565b50505b505050565b81516001600160401b038111156105af576105af6104f7565b6105c3816105bd845461050d565b84610547565b6020601f8211600181146105f757600083156105df5750848201515b600019600385901b1c1916600184901b17845561058e565b600084815260208120601f198516915b828110156106275787850151825560209485019460019092019101610607565b50848210156106455786840151600019600387901b60f8161c191681555b50505050600190811b01905550565b634e487b7160e01b600052601160045260246000fd5b8082018082111561067d5761067d610654565b92915050565b6000825160005b818110156106a4576020818601810151858301520161068a565b506000920191825250919050565b6000602082840312156106c457600080fd5b5051919050565b8181038181111561067d5761067d610654565b808202811582820484141761067d5761067d610654565b60008261071257634e487b7160e01b600052601260045260246000fd5b500490565b805161ffff8116811461072957600080fd5b919050565b600080600080600080600060e0888a03121561074957600080fd5b87516107548161047c565b8097505060208801518060020b811461076c57600080fd5b955061077a60408901610717565b945061078860608901610717565b935061079660808901610717565b925060a088015160ff811681146107ac57600080fd5b60c089015190925080151581146107c257600080fd5b8091505092959891949750929550565b60805160a05160c05160e051610100516101205161014051611f9d6108b1600039600081816104bb0152818161090201526109d101526000818161041a015281816109290152818161095c01526109a6015260008181610319015281816108db015261097d0152600081816102a7015281816107b601528181610b2301528181610d6301528181610f57015261138c0152600081816103880152818161056b0152818161073d0152610fdc0152600061070101526000818161033d01528181611056015281816111080152818161128401526114390152611f9d6000f3fe608060405234801561001057600080fd5b50600436106102275760003560e01c80637850a8fc11610130578063c63d75b6116100b8578063d905777e1161007c578063d905777e146104dd578063dd62ed3e146104f0578063decc944314610529578063ef8b30f714610490578063fa461e331461053257600080fd5b8063c63d75b614610361578063c66f245514610488578063c6e6f59214610490578063ce96cb77146104a3578063d8e60387146104b657600080fd5b80639d047a4c116100ff5780639d047a4c14610415578063a9059cbb1461043c578063b3d7f6b91461044f578063b460af9414610462578063ba0876521461047557600080fd5b80637850a8fc146103e85780638b40f9e0146103f057806394bf804d146103fa57806395d89b411461040d57600080fd5b8063389ef53c116101b35780634b94f50e116101825780634b94f50e1461037e5780634cdad5061461025c5780635210eb56146103865780636e553f65146103ac57806370a08231146103bf57600080fd5b8063389ef53c1461031457806338d52e0f1461033b578063402d267d1461036157806343cce08e1461037657600080fd5b80630a28a477116101fa5780630a28a477146102925780631755ff21146102a557806318160ddd146102df57806323b872dd146102e7578063313ce567146102fa57600080fd5b806301e1d1141461022c57806306fdde031461024757806307a2d13a1461025c578063095ea7b31461026f575b600080fd5b610234610545565b6040519081526020015b60405180910390f35b61024f610609565b60405161023e919061195c565b61023461026a3660046119aa565b61069b565b61028261027d3660046119db565b6106ae565b604051901515815260200161023e565b6102346102a03660046119aa565b6106c6565b7f00000000000000000000000000000000000000000000000000000000000000005b6040516001600160a01b03909116815260200161023e565b600254610234565b6102826102f5366004611a07565b6106d3565b6103026106f9565b60405160ff909116815260200161023e565b6102347f000000000000000000000000000000000000000000000000000000000000000081565b7f00000000000000000000000000000000000000000000000000000000000000006102c7565b61023461036f366004611a48565b5060001990565b610234610725565b6102346107b1565b7f00000000000000000000000000000000000000000000000000000000000000006102c7565b6102346103ba366004611a65565b610898565b6102346103cd366004611a48565b6001600160a01b031660009081526020819052604090205490565b6102346108cc565b6103f86109f5565b005b610234610408366004611a65565b610e04565b61024f610e22565b6102347f000000000000000000000000000000000000000000000000000000000000000081565b61028261044a3660046119db565b610e31565b61023461045d3660046119aa565b610e3f565b610234610470366004611a95565b610e4c565b610234610483366004611a95565b610ea4565b610234610ef3565b61023461049e3660046119aa565b610efd565b6102346104b1366004611a48565b610f0a565b6102347f000000000000000000000000000000000000000000000000000000000000000081565b6102346104eb366004611a48565b610f2e565b6102346104fe366004611ad7565b6001600160a01b03918216600090815260016020908152604080832093909416825291909152205490565b61023460065481565b6103f8610540366004611b05565b610f4c565b6040516370a0823160e01b8152306004820152600090600160401b906001600160a01b037f000000000000000000000000000000000000000000000000000000000000000016906370a0823190602401602060405180830381865afa1580156105b2573d6000803e3d6000fd5b505050506040513d601f19601f820116820180604052508101906105d69190611b88565b6105de6107b1565b6105e89190611bb7565b6105f29190611be4565b6105fa6110f0565b6106049190611bf8565b905090565b60606003805461061890611c0b565b80601f016020809104026020016040519081016040528092919081815260200182805461064490611c0b565b80156106915780601f1061066657610100808354040283529160200191610691565b820191906000526020600020905b81548152906001019060200180831161067457829003601f168201915b5050505050905090565b60006106a882600061113f565b92915050565b6000336106bc818585611179565b5060019392505050565b60006106a882600161118b565b6000336106e18582856111bb565b6106ec858585611220565b60019150505b9392505050565b6000610604817f0000000000000000000000000000000000000000000000000000000000000000611c45565b6040516370a0823160e01b81523060048201526000907f00000000000000000000000000000000000000000000000000000000000000006001600160a01b0316906370a08231906024015b602060405180830381865afa15801561078d573d6000803e3d6000fd5b505050506040513d601f19601f820116820180604052508101906106049190611b88565b6000807f00000000000000000000000000000000000000000000000000000000000000006001600160a01b0316633850c7bd6040518163ffffffff1660e01b815260040160e060405180830381865afa158015610812573d6000803e3d6000fd5b505050506040513d601f19601f820116820180604052508101906108369190611c85565b5050505050506001600160a01b0316905060001561087c5780600160401b61086282600160c01b611be4565b61086c9190611bb7565b6108769190611be4565b91505090565b61088e600160401b600160c01b611be4565b61086c8280611bb7565b60006000196108ab565b60405180910390fd5b60006108b685610efd565b90506108c43385878461127f565b949350505050565b6000806108d76107b1565b90507f00000000000000000000000000000000000000000000000000000000000000008110610927577f000000000000000000000000000000000000000000000000000000000000000091505090565b7f000000000000000000000000000000000000000000000000000000000000000081101561095757600091505090565b6109a17f00000000000000000000000000000000000000000000000000000000000000007f0000000000000000000000000000000000000000000000000000000000000000611d40565b6109cb7f000000000000000000000000000000000000000000000000000000000000000083611d40565b61086c907f0000000000000000000000000000000000000000000000000000000000000000611bb7565b60006109ff6108cc565b90506006548103610a0d5750565b600654811015610c7f576000600654610a24610ef3565b610a2e9190611be4565b9050600080610a3b610725565b90508215610c7757835b600654811015610a8a5760058181548110610a6257610a62611d53565b9060005260206000200154600003610a8257610a7f600184611bf8565b92505b600101610a45565b5081600003610ace5760405162461bcd60e51b815260206004820152601060248201526f0746f74616c416d6f756e7420697320360841b60448201526064016108a2565b7f76911b5d8081a7d290dd15cdb0e39e9513ac7e8d1cce3275a7cf1380889abacc610af76107b1565b610b018486611bb7565b6040805192835260208301919091520160405180910390a16001600160a01b037f00000000000000000000000000000000000000000000000000000000000000001663128acb08306000610b558688611bb7565b610b74600173fffd8963efd1fc6a506488495d951d5263988d26611d69565b6040518563ffffffff1660e01b8152600401610b939493929190611da7565b60408051808303816000875af1158015610bb1573d6000803e3d6000fd5b505050506040513d601f19601f82011682018060405250810190610bd59190611de1565b5050600081610be2610725565b610bec9190611d40565b90508460005b84811015610c735760058281548110610c0d57610c0d611d53565b9060005260206000200154600003610c615784610c2a8285611bf8565b610c349190611be4565b60058381548110610c4757610c47611d53565b60009182526020909120015580610c5d81611e05565b9150505b81610c6b81611e05565b925050610bf2565b5050505b505050600655565b600654811115610dff576006546000905b82811015610d125760058181548110610cab57610cab611d53565b9060005260206000200154600014610d0a5760058181548110610cd057610cd0611d53565b906000526020600020015482610ce69190611bf8565b9150600060058281548110610cfd57610cfd611d53565b6000918252602090912001555b600101610c90565b508015610dfd577f8ed05978f1a2453a08590ad9c67430e04d0b816de1318b575d1c28b7965ff5d5610d426107b1565b60408051918252602082018490520160405180910390a16001600160a01b037f00000000000000000000000000000000000000000000000000000000000000001663128acb0830600184610d9c6401000276a36001611d88565b6040518563ffffffff1660e01b8152600401610dbb9493929190611da7565b60408051808303816000875af1158015610dd9573d6000803e3d6000fd5b505050506040513d601f19601f82011682018060405250810190610c779190611de1565b505b600655565b60006000196000610e1485610e3f565b90506108c43385838861127f565b60606004805461061890611c0b565b6000336106bc818585611220565b60006106a882600161113f565b600080610e5883610f0a565b905080851115610e8157828582604051633fa733bb60e21b81526004016108a293929190611d1f565b6000610e8c866106c6565b9050610e9b3386868985611311565b95945050505050565b600080610eb083610f2e565b905080851115610ed957828582604051632e52afbb60e21b81526004016108a293929190611d1f565b6000610ee48661069b565b9050610e9b338686848a611311565b60006106046110f0565b60006106a882600061118b565b6001600160a01b0381166000908152602081905260408120546106a890600061113f565b6001600160a01b0381166000908152602081905260408120546106a8565b336001600160a01b037f00000000000000000000000000000000000000000000000000000000000000001614610faf5760405162461bcd60e51b8152602060048201526008602482015267139bdd081c1bdbdb60c21b60448201526064016108a2565b600084131561104b5760405163a9059cbb60e01b8152336004820152602481018590526001600160a01b037f0000000000000000000000000000000000000000000000000000000000000000169063a9059cbb906044016020604051808303816000875af1158015611025573d6000803e3d6000fd5b505050506040513d601f19601f820116820180604052508101906110499190611e1e565b505b60008313156110ea577f000000000000000000000000000000000000000000000000000000000000000060405163a9059cbb60e01b8152336004820152602481018590526001600160a01b03919091169063a9059cbb906044016020604051808303816000875af11580156110c4573d6000803e3d6000fd5b505050506040513d601f19601f820116820180604052508101906110e89190611e1e565b505b50505050565b6040516370a0823160e01b81523060048201526000907f00000000000000000000000000000000000000000000000000000000000000006001600160a01b0316906370a0823190602401610770565b60006106f261114c610545565b611157906001611bf8565b6111636000600a611f20565b6002546111709190611bf8565b859190856114c7565b611186838383600161150b565b505050565b60006106f261119b82600a611f20565b6002546111a89190611bf8565b6111b0610545565b611170906001611bf8565b6001600160a01b0383811660009081526001602090815260408083209386168352929052205460001981146110ea578181101561121157828183604051637dc7a0d960e11b81526004016108a293929190611d1f565b6110ea8484848403600061150b565b6001600160a01b03831661124a57604051634b637e8f60e11b8152600060048201526024016108a2565b6001600160a01b0382166112745760405163ec442f0560e01b8152600060048201526024016108a2565b6111868383836115d2565b6112ab7f00000000000000000000000000000000000000000000000000000000000000008530856116e9565b6112b58382611750565b826001600160a01b0316846001600160a01b03167fdcbc1c05240f31ff3ad067ef1ee35ce4997762752e3a095284754544f4c709d78484604051611303929190918252602082015260400190565b60405180910390a350505050565b826001600160a01b0316856001600160a01b031614611335576113358386836111bb565b61133f838261178a565b6000611349610ef3565b90508083111561143457600061135d6107b1565b600160401b61136c8487611d40565b6113769190611bb7565b6113809190611be4565b90506001600160a01b037f00000000000000000000000000000000000000000000000000000000000000001663128acb08306001846113c56401000276a36001611d88565b6040518563ffffffff1660e01b81526004016113e49493929190611da7565b60408051808303816000875af1158015611402573d6000803e3d6000fd5b505050506040513d601f19601f820116820180604052508101906114269190611de1565b5050611430610ef3565b9350505b61145f7f000000000000000000000000000000000000000000000000000000000000000086856117c0565b836001600160a01b0316856001600160a01b0316876001600160a01b03167ffbde797d201c681b91056529119e0b02407c7bb96a4a2c75c01fc9667232c8db86866040516114b7929190918252602082015260400190565b60405180910390a4505050505050565b60006114f66114d5836117f1565b80156114f15750600084806114ec576114ec611bce565b868809115b151590565b61150186868661181e565b610e9b9190611bf8565b6001600160a01b0384166115355760405163e602df0560e01b8152600060048201526024016108a2565b6001600160a01b03831661155f57604051634a1406b160e11b8152600060048201526024016108a2565b6001600160a01b03808516600090815260016020908152604080832093871683529290522082905580156110ea57826001600160a01b0316846001600160a01b03167f8c5be1e5ebec7d5bd14f71427d1e84f3dd0314c0f7b2291e5b200ac8c7c3b9258460405161130391815260200190565b6001600160a01b0383166115fd5780600260008282546115f29190611bf8565b9091555061165c9050565b6001600160a01b0383166000908152602081905260409020548181101561163d5783818360405163391434e360e21b81526004016108a293929190611d1f565b6001600160a01b03841660009081526020819052604090209082900390555b6001600160a01b03821661167857600280548290039055611697565b6001600160a01b03821660009081526020819052604090208054820190555b816001600160a01b0316836001600160a01b03167fddf252ad1be2c89b69c2b068fc378daa952ba7f163c4a11628f55a4df523b3ef836040516116dc91815260200190565b60405180910390a3505050565b6040516001600160a01b0384811660248301528381166044830152606482018390526110ea9186918216906323b872dd906084015b604051602081830303815290604052915060e01b6020820180516001600160e01b0383818316178352505050506118d9565b6001600160a01b03821661177a5760405163ec442f0560e01b8152600060048201526024016108a2565b611786600083836115d2565b5050565b6001600160a01b0382166117b457604051634b637e8f60e11b8152600060048201526024016108a2565b611786826000836115d2565b6040516001600160a01b0383811660248301526044820183905261118691859182169063a9059cbb9060640161171e565b6000600282600381111561180757611807611f2f565b6118119190611f45565b60ff166001149050919050565b60008383028160001985870982811083820303915050806000036118555783828161184b5761184b611bce565b04925050506106f2565b80841161186c5761186c600385150260111861194a565b6000848688096000868103871696879004966002600389028118808a02820302808a02820302808a02820302808a02820302808a02820302808a02909103029181900381900460010186841190950394909402919094039290920491909117919091029150509392505050565b600080602060008451602086016000885af1806118fc576040513d6000823e3d81fd5b50506000513d91508115611914578060011415611921565b6001600160a01b0384163b155b156110ea57604051635274afe760e01b81526001600160a01b03851660048201526024016108a2565b634e487b71600052806020526024601cfd5b602081526000825180602084015260005b8181101561198a576020818601810151604086840101520161196d565b506000604082850101526040601f19601f83011684010191505092915050565b6000602082840312156119bc57600080fd5b5035919050565b6001600160a01b03811681146119d857600080fd5b50565b600080604083850312156119ee57600080fd5b82356119f9816119c3565b946020939093013593505050565b600080600060608486031215611a1c57600080fd5b8335611a27816119c3565b92506020840135611a37816119c3565b929592945050506040919091013590565b600060208284031215611a5a57600080fd5b81356106f2816119c3565b60008060408385031215611a7857600080fd5b823591506020830135611a8a816119c3565b809150509250929050565b600080600060608486031215611aaa57600080fd5b833592506020840135611abc816119c3565b91506040840135611acc816119c3565b809150509250925092565b60008060408385031215611aea57600080fd5b8235611af5816119c3565b91506020830135611a8a816119c3565b60008060008060608587031215611b1b57600080fd5b8435935060208501359250604085013567ffffffffffffffff811115611b4057600080fd5b8501601f81018713611b5157600080fd5b803567ffffffffffffffff811115611b6857600080fd5b876020828401011115611b7a57600080fd5b949793965060200194505050565b600060208284031215611b9a57600080fd5b5051919050565b634e487b7160e01b600052601160045260246000fd5b80820281158282048414176106a8576106a8611ba1565b634e487b7160e01b600052601260045260246000fd5b600082611bf357611bf3611bce565b500490565b808201808211156106a8576106a8611ba1565b600181811c90821680611c1f57607f821691505b602082108103611c3f57634e487b7160e01b600052602260045260246000fd5b50919050565b60ff81811683821601908111156106a8576106a8611ba1565b805161ffff81168114611c7057600080fd5b919050565b80518015158114611c7057600080fd5b600080600080600080600060e0888a031215611ca057600080fd5b8751611cab816119c3565b8097505060208801518060020b8114611cc357600080fd5b9550611cd160408901611c5e565b9450611cdf60608901611c5e565b9350611ced60808901611c5e565b925060a088015160ff81168114611d0357600080fd5b9150611d1160c08901611c75565b905092959891949750929550565b6001600160a01b039390931683526020830191909152604082015260600190565b818103818111156106a8576106a8611ba1565b634e487b7160e01b600052603260045260246000fd5b6001600160a01b0382811682821603908111156106a8576106a8611ba1565b6001600160a01b0381811683821601908111156106a8576106a8611ba1565b6001600160a01b03948516815292151560208401526040830191909152909116606082015260a06080820181905260009082015260c00190565b60008060408385031215611df457600080fd5b505080516020909101519092909150565b600060018201611e1757611e17611ba1565b5060010190565b600060208284031215611e3057600080fd5b6106f282611c75565b6001815b6001841115611e7457808504811115611e5857611e58611ba1565b6001841615611e6657908102905b60019390931c928002611e3d565b935093915050565b600082611e8b575060016106a8565b81611e98575060006106a8565b8160018114611eae5760028114611eb857611ed4565b60019150506106a8565b60ff841115611ec957611ec9611ba1565b50506001821b6106a8565b5060208310610133831016604e8410600b8410161715611ef7575081810a6106a8565b611f046000198484611e39565b8060001904821115611f1857611f18611ba1565b029392505050565b60006106f260ff841683611e7c565b634e487b7160e01b600052602160045260246000fd5b600060ff831680611f5857611f58611bce565b8060ff8416069150509291505056fea264697066735822122088b3501da3b263104853b13ae3803611c3fa45cc8d7bf1c5fbba637ede72fc4f64736f6c634300081b0033",
  "linkReferences": {},
  "deployedLinkReferences": {}
}