{
  "_format": "hh-sol-artifact-1",
  "contractName": "FSCS",
  "sourceName": "contracts/FSCS.sol",
  "abi": [
    {
      "inputs": [
        {
          "internalType": "contract IUniswapV3Pool",
          "name": "Pool_",
          "type": "address"
        },
        {
          "internalType": "uint256",
          "name": "bottom",
          "type": "uint256"
        },
        {
          "internalType": "uint256",
          "name": "ref",
          "type": "uint256"
        },
        {
          "internalType": "uint256",
          "name": "gridNum",
          "type": "uint256"
        }
      ],
      "stateMutability": "nonpayable",
      "type": "constructor"
    },
    {
      "inputs": [
        {
          "internalType": "address",
          "name": "spender",
          "type": "address"
        },
        {
          "internalType": "uint256",
          "name": "allowance",
          "type": "uint256"
        },
        {
          "internalType": "uint256",
          "name": "needed",
          "type": "uint256"
        }
      ],
      "name": "ERC20InsufficientAllowance",
      "type": "error"
    },
    {
      "inputs": [
        {
          "internalType": "address",
          "name": "sender",
          "type": "address"
        },
        {
          "internalType": "uint256",
          "name": "balance",
          "type": "uint256"
        },
        {
          "internalType": "uint256",
          "name": "needed",
          "type": "uint256"
        }
      ],
      "name": "ERC20InsufficientBalance",
      "type": "error"
    },
    {
      "inputs": [
        {
          "internalType": "address",
          "name": "approver",
          "type": "address"
        }
      ],
      "name": "ERC20InvalidApprover",
      "type": "error"
    },
    {
      "inputs": [
        {
          "internalType": "address",
          "name": "receiver",
          "type": "address"
        }
      ],
      "name": "ERC20InvalidReceiver",
      "type": "error"
    },
    {
      "inputs": [
        {
          "internalType": "address",
          "name": "sender",
          "type": "address"
        }
      ],
      "name": "ERC20InvalidSender",
      "type": "error"
    },
    {
      "inputs": [
        {
          "internalType": "address",
          "name": "spender",
          "type": "address"
        }
      ],
      "name": "ERC20InvalidSpender",
      "type": "error"
    },
    {
      "inputs": [
        {
          "internalType": "address",
          "name": "receiver",
          "type": "address"
        },
        {
          "internalType": "uint256",
          "name": "assets",
          "type": "uint256"
        },
        {
          "internalType": "uint256",
          "name": "max",
          "type": "uint256"
        }
      ],
      "name": "ERC4626ExceededMaxDeposit",
      "type": "error"
    },
    {
      "inputs": [
        {
          "internalType": "address",
          "name": "receiver",
          "type": "address"
        },
        {
          "internalType": "uint256",
          "name": "shares",
          "type": "uint256"
        },
        {
          "internalType": "uint256",
          "name": "max",
          "type": "uint256"
        }
      ],
      "name": "ERC4626ExceededMaxMint",
      "type": "error"
    },
    {
      "inputs": [
        {
          "internalType": "address",
          "name": "owner",
          "type": "address"
        },
        {
          "internalType": "uint256",
          "name": "shares",
          "type": "uint256"
        },
        {
          "internalType": "uint256",
          "name": "max",
          "type": "uint256"
        }
      ],
      "name": "ERC4626ExceededMaxRedeem",
      "type": "error"
    },
    {
      "inputs": [
        {
          "internalType": "address",
          "name": "owner",
          "type": "address"
        },
        {
          "internalType": "uint256",
          "name": "assets",
          "type": "uint256"
        },
        {
          "internalType": "uint256",
          "name": "max",
          "type": "uint256"
        }
      ],
      "name": "ERC4626ExceededMaxWithdraw",
      "type": "error"
    },
    {
      "inputs": [
        {
          "internalType": "address",
          "name": "token",
          "type": "address"
        }
      ],
      "name": "SafeERC20FailedOperation",
      "type": "error"
    },
    {
      "anonymous": false,
      "inputs": [
        {
          "indexed": true,
          "internalType": "address",
          "name": "owner",
          "type": "address"
        },
        {
          "indexed": true,
          "internalType": "address",
          "name": "spender",
          "type": "address"
        },
        {
          "indexed": false,
          "internalType": "uint256",
          "name": "value",
          "type": "uint256"
        }
      ],
      "name": "Approval",
      "type": "event"
    },
    {
      "anonymous": false,
      "inputs": [
        {
          "indexed": false,
          "internalType": "uint256",
          "name": "price",
          "type": "uint256"
        },
        {
          "indexed": false,
          "internalType": "uint256",
          "name": "amount",
          "type": "uint256"
        }
      ],
      "name": "Buy",
      "type": "event"
    },
    {
      "anonymous": false,
      "inputs": [
        {
          "indexed": true,
          "internalType": "address",
          "name": "sender",
          "type": "address"
        },
        {
          "indexed": true,
          "internalType": "address",
          "name": "owner",
          "type": "address"
        },
        {
          "indexed": false,
          "internalType": "uint256",
          "name": "assets",
          "type": "uint256"
        },
        {
          "indexed": false,
          "internalType": "uint256",
          "name": "shares",
          "type": "uint256"
        }
      ],
      "name": "Deposit",
      "type": "event"
    },
    {
      "anonymous": false,
      "inputs": [
        {
          "indexed": false,
          "internalType": "uint256",
          "name": "price",
          "type": "uint256"
        },
        {
          "indexed": false,
          "internalType": "uint256",
          "name": "amount",
          "type": "uint256"
        }
      ],
      "name": "Sell",
      "type": "event"
    },
    {
      "anonymous": false,
      "inputs": [
        {
          "indexed": true,
          "internalType": "address",
          "name": "from",
          "type": "address"
        },
        {
          "indexed": true,
          "internalType": "address",
          "name": "to",
          "type": "address"
        },
        {
          "indexed": false,
          "internalType": "uint256",
          "name": "value",
          "type": "uint256"
        }
      ],
      "name": "Transfer",
      "type": "event"
    },
    {
      "anonymous": false,
      "inputs": [
        {
          "indexed": true,
          "internalType": "address",
          "name": "sender",
          "type": "address"
        },
        {
          "indexed": true,
          "internalType": "address",
          "name": "receiver",
          "type": "address"
        },
        {
          "indexed": true,
          "internalType": "address",
          "name": "owner",
          "type": "address"
        },
        {
          "indexed": false,
          "internalType": "uint256",
          "name": "assets",
          "type": "uint256"
        },
        {
          "indexed": false,
          "internalType": "uint256",
          "name": "shares",
          "type": "uint256"
        }
      ],
      "name": "Withdraw",
      "type": "event"
    },
    {
      "inputs": [],
      "name": "BOTTOM",
      "outputs": [
        {
          "internalType": "uint256",
          "name": "",
          "type": "uint256"
        }
      ],
      "stateMutability": "view",
      "type": "function"
    },
    {
      "inputs": [],
      "name": "GRID_NUM",
      "outputs": [
        {
          "internalType": "uint256",
          "name": "",
          "type": "uint256"
        }
      ],
      "stateMutability": "view",
      "type": "function"
    },
    {
      "inputs": [],
      "name": "REFERENCE",
      "outputs": [
        {
          "internalType": "uint256",
          "name": "",
          "type": "uint256"
        }
      ],
      "stateMutability": "view",
      "type": "function"
    },
    {
      "inputs": [
        {
          "internalType": "address",
          "name": "owner",
          "type": "address"
        },
        {
          "internalType": "address",
          "name": "spender",
          "type": "address"
        }
      ],
      "name": "allowance",
      "outputs": [
        {
          "internalType": "uint256",
          "name": "",
          "type": "uint256"
        }
      ],
      "stateMutability": "view",
      "type": "function"
    },
    {
      "inputs": [
        {
          "internalType": "address",
          "name": "spender",
          "type": "address"
        },
        {
          "internalType": "uint256",
          "name": "value",
          "type": "uint256"
        }
      ],
      "name": "approve",
      "outputs": [
        {
          "internalType": "bool",
          "name": "",
          "type": "bool"
        }
      ],
      "stateMutability": "nonpayable",
      "type": "function"
    },
    {
      "inputs": [],
      "name": "asset",
      "outputs": [
        {
          "internalType": "address",
          "name": "",
          "type": "address"
        }
      ],
      "stateMutability": "view",
      "type": "function"
    },
    {
      "inputs": [],
      "name": "assetBalance",
      "outputs": [
        {
          "internalType": "uint256",
          "name": "",
          "type": "uint256"
        }
      ],
      "stateMutability": "view",
      "type": "function"
    },
    {
      "inputs": [
        {
          "internalType": "address",
          "name": "account",
          "type": "address"
        }
      ],
      "name": "balanceOf",
      "outputs": [
        {
          "internalType": "uint256",
          "name": "",
          "type": "uint256"
        }
      ],
      "stateMutability": "view",
      "type": "function"
    },
    {
      "inputs": [
        {
          "internalType": "uint256",
          "name": "",
          "type": "uint256"
        }
      ],
      "name": "buyQty",
      "outputs": [
        {
          "internalType": "uint256",
          "name": "",
          "type": "uint256"
        }
      ],
      "stateMutability": "view",
      "type": "function"
    },
    {
      "inputs": [
        {
          "internalType": "uint256",
          "name": "shares",
          "type": "uint256"
        }
      ],
      "name": "convertToAssets",
      "outputs": [
        {
          "internalType": "uint256",
          "name": "",
          "type": "uint256"
        }
      ],
      "stateMutability": "view",
      "type": "function"
    },
    {
      "inputs": [
        {
          "internalType": "uint256",
          "name": "assets",
          "type": "uint256"
        }
      ],
      "name": "convertToShares",
      "outputs": [
        {
          "internalType": "uint256",
          "name": "",
          "type": "uint256"
        }
      ],
      "stateMutability": "view",
      "type": "function"
    },
    {
      "inputs": [],
      "name": "decimals",
      "outputs": [
        {
          "internalType": "uint8",
          "name": "",
          "type": "uint8"
        }
      ],
      "stateMutability": "view",
      "type": "function"
    },
    {
      "inputs": [
        {
          "internalType": "uint256",
          "name": "assets",
          "type": "uint256"
        },
        {
          "internalType": "address",
          "name": "receiver",
          "type": "address"
        }
      ],
      "name": "deposit",
      "outputs": [
        {
          "internalType": "uint256",
          "name": "",
          "type": "uint256"
        }
      ],
      "stateMutability": "nonpayable",
      "type": "function"
    },
    {
      "inputs": [],
      "name": "getTokenLevel",
      "outputs": [
        {
          "internalType": "uint256",
          "name": "",
          "type": "uint256"
        }
      ],
      "stateMutability": "view",
      "type": "function"
    },
    {
      "inputs": [],
      "name": "getTokenPrice",
      "outputs": [
        {
          "internalType": "uint256",
          "name": "",
          "type": "uint256"
        }
      ],
      "stateMutability": "view",
      "type": "function"
    },
    {
      "inputs": [],
      "name": "makeTransaction",
      "outputs": [],
      "stateMutability": "nonpayable",
      "type": "function"
    },
    {
      "inputs": [
        {
          "internalType": "address",
          "name": "",
          "type": "address"
        }
      ],
      "name": "maxDeposit",
      "outputs": [
        {
          "internalType": "uint256",
          "name": "",
          "type": "uint256"
        }
      ],
      "stateMutability": "view",
      "type": "function"
    },
    {
      "inputs": [
        {
          "internalType": "address",
          "name": "",
          "type": "address"
        }
      ],
      "name": "maxMint",
      "outputs": [
        {
          "internalType": "uint256",
          "name": "",
          "type": "uint256"
        }
      ],
      "stateMutability": "view",
      "type": "function"
    },
    {
      "inputs": [
        {
          "internalType": "address",
          "name": "owner",
          "type": "address"
        }
      ],
      "name": "maxRedeem",
      "outputs": [
        {
          "internalType": "uint256",
          "name": "",
          "type": "uint256"
        }
      ],
      "stateMutability": "view",
      "type": "function"
    },
    {
      "inputs": [
        {
          "internalType": "address",
          "name": "owner",
          "type": "address"
        }
      ],
      "name": "maxWithdraw",
      "outputs": [
        {
          "internalType": "uint256",
          "name": "",
          "type": "uint256"
        }
      ],
      "stateMutability": "view",
      "type": "function"
    },
    {
      "inputs": [
        {
          "internalType": "uint256",
          "name": "shares",
          "type": "uint256"
        },
        {
          "internalType": "address",
          "name": "receiver",
          "type": "address"
        }
      ],
      "name": "mint",
      "outputs": [
        {
          "internalType": "uint256",
          "name": "",
          "type": "uint256"
        }
      ],
      "stateMutability": "nonpayable",
      "type": "function"
    },
    {
      "inputs": [],
      "name": "name",
      "outputs": [
        {
          "internalType": "string",
          "name": "",
          "type": "string"
        }
      ],
      "stateMutability": "view",
      "type": "function"
    },
    {
      "inputs": [],
      "name": "poolAddress",
      "outputs": [
        {
          "internalType": "address",
          "name": "",
          "type": "address"
        }
      ],
      "stateMutability": "view",
      "type": "function"
    },
    {
      "inputs": [
        {
          "internalType": "uint256",
          "name": "assets",
          "type": "uint256"
        }
      ],
      "name": "previewDeposit",
      "outputs": [
        {
          "internalType": "uint256",
          "name": "",
          "type": "uint256"
        }
      ],
      "stateMutability": "view",
      "type": "function"
    },
    {
      "inputs": [
        {
          "internalType": "uint256",
          "name": "shares",
          "type": "uint256"
        }
      ],
      "name": "previewMint",
      "outputs": [
        {
          "internalType": "uint256",
          "name": "",
          "type": "uint256"
        }
      ],
      "stateMutability": "view",
      "type": "function"
    },
    {
      "inputs": [
        {
          "internalType": "uint256",
          "name": "shares",
          "type": "uint256"
        }
      ],
      "name": "previewRedeem",
      "outputs": [
        {
          "internalType": "uint256",
          "name": "",
          "type": "uint256"
        }
      ],
      "stateMutability": "view",
      "type": "function"
    },
    {
      "inputs": [
        {
          "internalType": "uint256",
          "name": "assets",
          "type": "uint256"
        }
      ],
      "name": "previewWithdraw",
      "outputs": [
        {
          "internalType": "uint256",
          "name": "",
          "type": "uint256"
        }
      ],
      "stateMutability": "view",
      "type": "function"
    },
    {
      "inputs": [],
      "name": "previousLevel",
      "outputs": [
        {
          "internalType": "uint256",
          "name": "",
          "type": "uint256"
        }
      ],
      "stateMutability": "view",
      "type": "function"
    },
    {
      "inputs": [
        {
          "internalType": "uint256",
          "name": "shares",
          "type": "uint256"
        },
        {
          "internalType": "address",
          "name": "receiver",
          "type": "address"
        },
        {
          "internalType": "address",
          "name": "owner",
          "type": "address"
        }
      ],
      "name": "redeem",
      "outputs": [
        {
          "internalType": "uint256",
          "name": "",
          "type": "uint256"
        }
      ],
      "stateMutability": "nonpayable",
      "type": "function"
    },
    {
      "inputs": [],
      "name": "symbol",
      "outputs": [
        {
          "internalType": "string",
          "name": "",
          "type": "string"
        }
      ],
      "stateMutability": "view",
      "type": "function"
    },
    {
      "inputs": [],
      "name": "targetAddress",
      "outputs": [
        {
          "internalType": "address",
          "name": "",
          "type": "address"
        }
      ],
      "stateMutability": "view",
      "type": "function"
    },
    {
      "inputs": [],
      "name": "targetBalance",
      "outputs": [
        {
          "internalType": "uint256",
          "name": "",
          "type": "uint256"
        }
      ],
      "stateMutability": "view",
      "type": "function"
    },
    {
      "inputs": [],
      "name": "totalAssets",
      "outputs": [
        {
          "internalType": "uint256",
          "name": "",
          "type": "uint256"
        }
      ],
      "stateMutability": "view",
      "type": "function"
    },
    {
      "inputs": [],
      "name": "totalSupply",
      "outputs": [
        {
          "internalType": "uint256",
          "name": "",
          "type": "uint256"
        }
      ],
      "stateMutability": "view",
      "type": "function"
    },
    {
      "inputs": [
        {
          "internalType": "address",
          "name": "to",
          "type": "address"
        },
        {
          "internalType": "uint256",
          "name": "value",
          "type": "uint256"
        }
      ],
      "name": "transfer",
      "outputs": [
        {
          "internalType": "bool",
          "name": "",
          "type": "bool"
        }
      ],
      "stateMutability": "nonpayable",
      "type": "function"
    },
    {
      "inputs": [
        {
          "internalType": "address",
          "name": "from",
          "type": "address"
        },
        {
          "internalType": "address",
          "name": "to",
          "type": "address"
        },
        {
          "internalType": "uint256",
          "name": "value",
          "type": "uint256"
        }
      ],
      "name": "transferFrom",
      "outputs": [
        {
          "internalType": "bool",
          "name": "",
          "type": "bool"
        }
      ],
      "stateMutability": "nonpayable",
      "type": "function"
    },
    {
      "inputs": [
        {
          "internalType": "int256",
          "name": "amount0Delta",
          "type": "int256"
        },
        {
          "internalType": "int256",
          "name": "amount1Delta",
          "type": "int256"
        },
        {
          "internalType": "bytes",
          "name": "data",
          "type": "bytes"
        }
      ],
      "name": "uniswapV3SwapCallback",
      "outputs": [],
      "stateMutability": "nonpayable",
      "type": "function"
    },
    {
      "inputs": [
        {
          "internalType": "uint256",
          "name": "assets",
          "type": "uint256"
        },
        {
          "internalType": "address",
          "name": "receiver",
          "type": "address"
        },
        {
          "internalType": "address",
          "name": "owner",
          "type": "address"
        }
      ],
      "name": "withdraw",
      "outputs": [
        {
          "internalType": "uint256",
          "name": "",
          "type": "uint256"
        }
      ],
      "stateMutability": "nonpayable",
      "type": "function"
    }
  ],
  "bytecode": "0x61016060405234801561001157600080fd5b506040516129ee3803806129ee833981016040819052610030916104c2565b836001600160a01b031663d21220a76040518163ffffffff1660e01b8152600401602060405180830381865afa15801561006e573d6000803e3d6000fd5b505050506040513d601f19601f820116820180604052508101906100929190610501565b604051806040016040528060078152602001661194d0d4d7d05160ca1b815250604051806040016040528060048152602001634653435360e01b81525081600390816100de91906105c4565b5060046100eb82826105c4565b5050506000806101008361022360201b60201c565b9150915081610110576012610112565b805b60ff1660a05250506001600160a01b0316608052836001600160a01b0316630dfe16816040518163ffffffff1660e01b8152600401602060405180830381865afa158015610164573d6000803e3d6000fd5b505050506040513d601f19601f820116820180604052508101906101889190610501565b6001600160a01b0390811660c052841660e0526101208390526101008290526101408190526101b8600182610698565b6001600160401b038111156101cf576101cf610525565b6040519080825280602002602001820160405280156101f8578160200160208202803683370190505b50805161020d91600591602090910190610453565b506102166102ff565b600655506107e792505050565b60408051600481526024810182526020810180516001600160e01b031663313ce56760e01b17905290516000918291829182916001600160a01b0387169161026a916106ab565b600060405180830381855afa9150503d80600081146102a5576040519150601f19603f3d011682016040523d82523d6000602084013e6102aa565b606091505b50915091508180156102be57506020815110155b156102f2576000818060200190518101906102d991906106da565b905060ff81116102f0576001969095509350505050565b505b5060009485945092505050565b600061031161030c610316565b6103ed565b905090565b60008060e0516001600160a01b0316633850c7bd6040518163ffffffff1660e01b815260040160e060405180830381865afa158015610359573d6000803e3d6000fd5b505050506040513d601f19601f8201168201806040525081019061037d919061070a565b5050505050506001600160a01b031690506000156103c85780680100000000000000006103ae82600160c01b6107ae565b6103b891906107d0565b6103c291906107ae565b91505090565b6103df68010000000000000000600160c01b6107ae565b6103b882806107d0565b5090565b60006101005182106104025750506101405190565b6101205182101561041557506000919050565b61012051610100516104279190610698565b610120516104359084610698565b6101405161044391906107d0565b61044d91906107ae565b92915050565b82805482825590600052602060002090810192821561048e579160200282015b8281111561048e578251825591602001919060010190610473565b506103e99291505b808211156103e95760008155600101610496565b6001600160a01b03811681146104bf57600080fd5b50565b600080600080608085870312156104d857600080fd5b84516104e3816104aa565b60208601516040870151606090970151919890975090945092505050565b60006020828403121561051357600080fd5b815161051e816104aa565b9392505050565b634e487b7160e01b600052604160045260246000fd5b600181811c9082168061054f57607f821691505b60208210810361056f57634e487b7160e01b600052602260045260246000fd5b50919050565b601f8211156105bf57806000526020600020601f840160051c8101602085101561059c5750805b601f840160051c820191505b818110156105bc57600081556001016105a8565b50505b505050565b81516001600160401b038111156105dd576105dd610525565b6105f1816105eb845461053b565b84610575565b6020601f821160018114610625576000831561060d5750848201515b600019600385901b1c1916600184901b1784556105bc565b600084815260208120601f198516915b828110156106555787850151825560209485019460019092019101610635565b50848210156106735786840151600019600387901b60f8161c191681555b50505050600190811b01905550565b634e487b7160e01b600052601160045260246000fd5b8181038181111561044d5761044d610682565b6000825160005b818110156106cc57602081860181015185830152016106b2565b506000920191825250919050565b6000602082840312156106ec57600080fd5b5051919050565b805161ffff8116811461070557600080fd5b919050565b600080600080600080600060e0888a03121561072557600080fd5b8751610730816104aa565b8097505060208801518060020b811461074857600080fd5b9550610756604089016106f3565b9450610764606089016106f3565b9350610772608089016106f3565b925060a088015160ff8116811461078857600080fd5b60c0890151909250801515811461079e57600080fd5b8091505092959891949750929550565b6000826107cb57634e487b7160e01b600052601260045260246000fd5b500490565b808202811582820484141761044d5761044d610682565b60805160a05160c05160e05161010051610120516101405161211a6108d4600039600081816104d90152818161094f0152818161097d015281816112a1015261136f015260008181610438015281816112c7015281816112fa015261134401526000818161032401528181611279015261131b0152600081816102b2015281816107d401528181610a6d01528181610cc301528181610ebb0152611418015260008181610393015281816105890152818161075b0152610f400152600061071f01526000818161034801528181610fba0152818161106c015281816111e801526115b6015261211a6000f3fe608060405234801561001057600080fd5b50600436106102325760003560e01c80637ddf80c811610130578063c63d75b6116100b8578063d905777e1161007c578063d905777e146104fb578063dd62ed3e1461050e578063decc944314610547578063ef8b30f7146104ae578063fa461e331461055057600080fd5b8063c63d75b61461036c578063c66f2455146104a6578063c6e6f592146104ae578063ce96cb77146104c1578063d8e60387146104d457600080fd5b80639d047a4c116100ff5780639d047a4c14610433578063a9059cbb1461045a578063b3d7f6b91461046d578063b460af9414610480578063ba0876521461049357600080fd5b80637ddf80c8146103fb5780638b40f9e01461040e57806394bf804d1461041857806395d89b411461042b57600080fd5b8063389ef53c116101be5780634cdad506116101825780634cdad506146102675780635210eb56146103915780636e553f65146103b757806370a08231146103ca5780637850a8fc146103f357600080fd5b8063389ef53c1461031f57806338d52e0f14610346578063402d267d1461036c57806343cce08e146103815780634b94f50e1461038957600080fd5b80630a28a477116102055780630a28a4771461029d5780631755ff21146102b057806318160ddd146102ea57806323b872dd146102f2578063313ce5671461030557600080fd5b806301e1d1141461023757806306fdde031461025257806307a2d13a14610267578063095ea7b31461027a575b600080fd5b61023f610563565b6040519081526020015b60405180910390f35b61025a610627565b6040516102499190611ad9565b61023f610275366004611b27565b6106b9565b61028d610288366004611b58565b6106cc565b6040519015158152602001610249565b61023f6102ab366004611b27565b6106e4565b7f00000000000000000000000000000000000000000000000000000000000000005b6040516001600160a01b039091168152602001610249565b60025461023f565b61028d610300366004611b84565b6106f1565b61030d610717565b60405160ff9091168152602001610249565b61023f7f000000000000000000000000000000000000000000000000000000000000000081565b7f00000000000000000000000000000000000000000000000000000000000000006102d2565b61023f61037a366004611bc5565b5060001990565b61023f610743565b61023f6107cf565b7f00000000000000000000000000000000000000000000000000000000000000006102d2565b61023f6103c5366004611be2565b6108b6565b61023f6103d8366004611bc5565b6001600160a01b031660009081526020819052604090205490565b61023f6108ea565b61023f610409366004611b27565b6108fc565b61041661091d565b005b61023f610426366004611be2565b610d68565b61025a610d86565b61023f7f000000000000000000000000000000000000000000000000000000000000000081565b61028d610468366004611b58565b610d95565b61023f61047b366004611b27565b610da3565b61023f61048e366004611c12565b610db0565b61023f6104a1366004611c12565b610e08565b61023f610e57565b61023f6104bc366004611b27565b610e61565b61023f6104cf366004611bc5565b610e6e565b61023f7f000000000000000000000000000000000000000000000000000000000000000081565b61023f610509366004611bc5565b610e92565b61023f61051c366004611c54565b6001600160a01b03918216600090815260016020908152604080832093909416825291909152205490565b61023f60065481565b61041661055e366004611c82565b610eb0565b6040516370a0823160e01b8152306004820152600090600160401b906001600160a01b037f000000000000000000000000000000000000000000000000000000000000000016906370a0823190602401602060405180830381865afa1580156105d0573d6000803e3d6000fd5b505050506040513d601f19601f820116820180604052508101906105f49190611d05565b6105fc6107cf565b6106069190611d34565b6106109190611d61565b610618611054565b6106229190611d75565b905090565b60606003805461063690611d88565b80601f016020809104026020016040519081016040528092919081815260200182805461066290611d88565b80156106af5780601f10610684576101008083540402835291602001916106af565b820191906000526020600020905b81548152906001019060200180831161069257829003601f168201915b5050505050905090565b60006106c68260006110a3565b92915050565b6000336106da8185856110dd565b5060019392505050565b60006106c68260016110ef565b6000336106ff85828561111f565b61070a858585611184565b60019150505b9392505050565b6000610622817f0000000000000000000000000000000000000000000000000000000000000000611dc2565b6040516370a0823160e01b81523060048201526000907f00000000000000000000000000000000000000000000000000000000000000006001600160a01b0316906370a08231906024015b602060405180830381865afa1580156107ab573d6000803e3d6000fd5b505050506040513d601f19601f820116820180604052508101906106229190611d05565b6000807f00000000000000000000000000000000000000000000000000000000000000006001600160a01b0316633850c7bd6040518163ffffffff1660e01b815260040160e060405180830381865afa158015610830573d6000803e3d6000fd5b505050506040513d601f19601f820116820180604052508101906108549190611e02565b5050505050506001600160a01b0316905060001561089a5780600160401b61088082600160c01b611d61565b61088a9190611d34565b6108949190611d61565b91505090565b6108ac600160401b600160c01b611d61565b61088a8280611d34565b60006000196108c9565b60405180910390fd5b60006108d485610e61565b90506108e2338587846111e3565b949350505050565b60006106226108f76107cf565b611275565b6005818154811061090c57600080fd5b600091825260209091200154905081565b60006109276107cf565b9050600061093482611275565b90506006548103610943575050565b600654811015610bb9577f0000000000000000000000000000000000000000000000000000000000000000600654036109a5576109a160017f0000000000000000000000000000000000000000000000000000000000000000611ebd565b6006555b60006006546109b2610e57565b6109bc9190611d61565b90508015610bb3576000806109cf610743565b9050835b600654811015610a1857600581815481106109f0576109f0611ed0565b9060005260206000200154600003610a1057610a0d600184611d75565b92505b6001016109d3565b508115610bb0577f76911b5d8081a7d290dd15cdb0e39e9513ac7e8d1cce3275a7cf1380889abacc85610a4b8486611d34565b6040805192835260208301919091520160405180910390a16001600160a01b037f00000000000000000000000000000000000000000000000000000000000000001663128acb08306000610a9f8688611d34565b610abe600173fffd8963efd1fc6a506488495d951d5263988d26611ee6565b6040518563ffffffff1660e01b8152600401610add9493929190611f24565b60408051808303816000875af1158015610afb573d6000803e3d6000fd5b505050506040513d601f19601f82011682018060405250810190610b1f9190611f5e565b5050600081610b2c610743565b610b369190611ebd565b90508460005b84811015610bac5760058281548110610b5757610b57611ed0565b9060005260206000200154600003610ba15784610b748285611d75565b610b7e9190611d61565b60058381548110610b9157610b91611ed0565b6000918252602090912001556001015b600190910190610b3c565b5050505b50505b50610d62565b600654811115610d62576000600654600003610bd55760016006555b6006545b82811015610c79576005610bee600183611ebd565b81548110610bfe57610bfe611ed0565b9060005260206000200154600014610c71576005610c1d600183611ebd565b81548110610c2d57610c2d611ed0565b906000526020600020015482610c439190611d75565b915060006005610c54600184611ebd565b81548110610c6457610c64611ed0565b6000918252602090912001555b600101610bd9565b508015610d605760408051848152602081018390527f8ed05978f1a2453a08590ad9c67430e04d0b816de1318b575d1c28b7965ff5d5910160405180910390a16001600160a01b037f00000000000000000000000000000000000000000000000000000000000000001663128acb0830600184610cfc6401000276a36001611f05565b6040518563ffffffff1660e01b8152600401610d1b9493929190611f24565b60408051808303816000875af1158015610d39573d6000803e3d6000fd5b505050506040513d601f19601f82011682018060405250810190610d5d9190611f5e565b50505b505b60065550565b60006000196000610d7885610da3565b90506108e2338583886111e3565b60606004805461063690611d88565b6000336106da818585611184565b60006106c68260016110a3565b600080610dbc83610e6e565b905080851115610de557828582604051633fa733bb60e21b81526004016108c093929190611e9c565b6000610df0866106e4565b9050610dff338686898561139d565b95945050505050565b600080610e1483610e92565b905080851115610e3d57828582604051632e52afbb60e21b81526004016108c093929190611e9c565b6000610e48866106b9565b9050610dff338686848a61139d565b6000610622611054565b60006106c68260006110ef565b6001600160a01b0381166000908152602081905260408120546106c69060006110a3565b6001600160a01b0381166000908152602081905260408120546106c6565b336001600160a01b037f00000000000000000000000000000000000000000000000000000000000000001614610f135760405162461bcd60e51b8152602060048201526008602482015267139bdd081c1bdbdb60c21b60448201526064016108c0565b6000841315610faf5760405163a9059cbb60e01b8152336004820152602481018590526001600160a01b037f0000000000000000000000000000000000000000000000000000000000000000169063a9059cbb906044016020604051808303816000875af1158015610f89573d6000803e3d6000fd5b505050506040513d601f19601f82011682018060405250810190610fad9190611f82565b505b600083131561104e577f000000000000000000000000000000000000000000000000000000000000000060405163a9059cbb60e01b8152336004820152602481018590526001600160a01b03919091169063a9059cbb906044016020604051808303816000875af1158015611028573d6000803e3d6000fd5b505050506040513d601f19601f8201168201806040525081019061104c9190611f82565b505b50505050565b6040516370a0823160e01b81523060048201526000907f00000000000000000000000000000000000000000000000000000000000000006001600160a01b0316906370a082319060240161078e565b60006107106110b0610563565b6110bb906001611d75565b6110c76000600a612084565b6002546110d49190611d75565b85919085611644565b6110ea8383836001611688565b505050565b60006107106110ff82600a612084565b60025461110c9190611d75565b611114610563565b6110d4906001611d75565b6001600160a01b03838116600090815260016020908152604080832093861683529290522054600019811461104e578181101561117557828183604051637dc7a0d960e11b81526004016108c093929190611e9c565b61104e84848484036000611688565b6001600160a01b0383166111ae57604051634b637e8f60e11b8152600060048201526024016108c0565b6001600160a01b0382166111d85760405163ec442f0560e01b8152600060048201526024016108c0565b6110ea83838361174f565b61120f7f0000000000000000000000000000000000000000000000000000000000000000853085611866565b61121983826118cd565b826001600160a01b0316846001600160a01b03167fdcbc1c05240f31ff3ad067ef1ee35ce4997762752e3a095284754544f4c709d78484604051611267929190918252602082015260400190565b60405180910390a350505050565b60007f000000000000000000000000000000000000000000000000000000000000000082106112c557507f0000000000000000000000000000000000000000000000000000000000000000919050565b7f00000000000000000000000000000000000000000000000000000000000000008210156112f557506000919050565b61133f7f00000000000000000000000000000000000000000000000000000000000000007f0000000000000000000000000000000000000000000000000000000000000000611ebd565b6113697f000000000000000000000000000000000000000000000000000000000000000084611ebd565b611393907f0000000000000000000000000000000000000000000000000000000000000000611d34565b6106c69190611d61565b826001600160a01b0316856001600160a01b0316146113c1576113c183868361111f565b6113cb8382611907565b60006113d5610e57565b9050808311156115b15760006113e96107cf565b600160401b6113f88487611ebd565b6114029190611d34565b61140c9190611d61565b90506001600160a01b037f00000000000000000000000000000000000000000000000000000000000000001663128acb08306001846114516401000276a36001611f05565b6040518563ffffffff1660e01b81526004016114709493929190611f24565b60408051808303816000875af115801561148e573d6000803e3d6000fd5b505050506040513d601f19601f820116820180604052508101906114b29190611f5e565b50506114bc610e57565b6006549094505b81156115ae57600581815481106114dc576114dc611ed0565b906000526020600020015460001461159c57816005828154811061150257611502611ed0565b9060005260206000200154111561154f57816005828154811061152757611527611ed0565b9060005260206000200160008282546115409190611ebd565b909155506000925061159c9050565b6005818154811061156257611562611ed0565b9060005260206000200154826115789190611ebd565b915060006005828154811061158f5761158f611ed0565b6000918252602090912001555b806115a681612093565b9150506114c3565b50505b6115dc7f0000000000000000000000000000000000000000000000000000000000000000868561193d565b836001600160a01b0316856001600160a01b0316876001600160a01b03167ffbde797d201c681b91056529119e0b02407c7bb96a4a2c75c01fc9667232c8db8686604051611634929190918252602082015260400190565b60405180910390a4505050505050565b60006116736116528361196e565b801561166e57506000848061166957611669611d4b565b868809115b151590565b61167e86868661199b565b610dff9190611d75565b6001600160a01b0384166116b25760405163e602df0560e01b8152600060048201526024016108c0565b6001600160a01b0383166116dc57604051634a1406b160e11b8152600060048201526024016108c0565b6001600160a01b038085166000908152600160209081526040808320938716835292905220829055801561104e57826001600160a01b0316846001600160a01b03167f8c5be1e5ebec7d5bd14f71427d1e84f3dd0314c0f7b2291e5b200ac8c7c3b9258460405161126791815260200190565b6001600160a01b03831661177a57806002600082825461176f9190611d75565b909155506117d99050565b6001600160a01b038316600090815260208190526040902054818110156117ba5783818360405163391434e360e21b81526004016108c093929190611e9c565b6001600160a01b03841660009081526020819052604090209082900390555b6001600160a01b0382166117f557600280548290039055611814565b6001600160a01b03821660009081526020819052604090208054820190555b816001600160a01b0316836001600160a01b03167fddf252ad1be2c89b69c2b068fc378daa952ba7f163c4a11628f55a4df523b3ef8360405161185991815260200190565b60405180910390a3505050565b6040516001600160a01b03848116602483015283811660448301526064820183905261104e9186918216906323b872dd906084015b604051602081830303815290604052915060e01b6020820180516001600160e01b038381831617835250505050611a56565b6001600160a01b0382166118f75760405163ec442f0560e01b8152600060048201526024016108c0565b6119036000838361174f565b5050565b6001600160a01b03821661193157604051634b637e8f60e11b8152600060048201526024016108c0565b6119038260008361174f565b6040516001600160a01b038381166024830152604482018390526110ea91859182169063a9059cbb9060640161189b565b60006002826003811115611984576119846120ac565b61198e91906120c2565b60ff166001149050919050565b60008383028160001985870982811083820303915050806000036119d2578382816119c8576119c8611d4b565b0492505050610710565b8084116119e9576119e96003851502601118611ac7565b6000848688096000868103871696879004966002600389028118808a02820302808a02820302808a02820302808a02820302808a02820302808a02909103029181900381900460010186841190950394909402919094039290920491909117919091029150509392505050565b600080602060008451602086016000885af180611a79576040513d6000823e3d81fd5b50506000513d91508115611a91578060011415611a9e565b6001600160a01b0384163b155b1561104e57604051635274afe760e01b81526001600160a01b03851660048201526024016108c0565b634e487b71600052806020526024601cfd5b602081526000825180602084015260005b81811015611b075760208186018101516040868401015201611aea565b506000604082850101526040601f19601f83011684010191505092915050565b600060208284031215611b3957600080fd5b5035919050565b6001600160a01b0381168114611b5557600080fd5b50565b60008060408385031215611b6b57600080fd5b8235611b7681611b40565b946020939093013593505050565b600080600060608486031215611b9957600080fd5b8335611ba481611b40565b92506020840135611bb481611b40565b929592945050506040919091013590565b600060208284031215611bd757600080fd5b813561071081611b40565b60008060408385031215611bf557600080fd5b823591506020830135611c0781611b40565b809150509250929050565b600080600060608486031215611c2757600080fd5b833592506020840135611c3981611b40565b91506040840135611c4981611b40565b809150509250925092565b60008060408385031215611c6757600080fd5b8235611c7281611b40565b91506020830135611c0781611b40565b60008060008060608587031215611c9857600080fd5b8435935060208501359250604085013567ffffffffffffffff811115611cbd57600080fd5b8501601f81018713611cce57600080fd5b803567ffffffffffffffff811115611ce557600080fd5b876020828401011115611cf757600080fd5b949793965060200194505050565b600060208284031215611d1757600080fd5b5051919050565b634e487b7160e01b600052601160045260246000fd5b80820281158282048414176106c6576106c6611d1e565b634e487b7160e01b600052601260045260246000fd5b600082611d7057611d70611d4b565b500490565b808201808211156106c6576106c6611d1e565b600181811c90821680611d9c57607f821691505b602082108103611dbc57634e487b7160e01b600052602260045260246000fd5b50919050565b60ff81811683821601908111156106c6576106c6611d1e565b805161ffff81168114611ded57600080fd5b919050565b80518015158114611ded57600080fd5b600080600080600080600060e0888a031215611e1d57600080fd5b8751611e2881611b40565b8097505060208801518060020b8114611e4057600080fd5b9550611e4e60408901611ddb565b9450611e5c60608901611ddb565b9350611e6a60808901611ddb565b925060a088015160ff81168114611e8057600080fd5b9150611e8e60c08901611df2565b905092959891949750929550565b6001600160a01b039390931683526020830191909152604082015260600190565b818103818111156106c6576106c6611d1e565b634e487b7160e01b600052603260045260246000fd5b6001600160a01b0382811682821603908111156106c6576106c6611d1e565b6001600160a01b0381811683821601908111156106c6576106c6611d1e565b6001600160a01b03948516815292151560208401526040830191909152909116606082015260a06080820181905260009082015260c00190565b60008060408385031215611f7157600080fd5b505080516020909101519092909150565b600060208284031215611f9457600080fd5b61071082611df2565b6001815b6001841115611fd857808504811115611fbc57611fbc611d1e565b6001841615611fca57908102905b60019390931c928002611fa1565b935093915050565b600082611fef575060016106c6565b81611ffc575060006106c6565b8160018114612012576002811461201c57612038565b60019150506106c6565b60ff84111561202d5761202d611d1e565b50506001821b6106c6565b5060208310610133831016604e8410600b841016171561205b575081810a6106c6565b6120686000198484611f9d565b806000190482111561207c5761207c611d1e565b029392505050565b600061071060ff841683611fe0565b6000600182016120a5576120a5611d1e565b5060010190565b634e487b7160e01b600052602160045260246000fd5b600060ff8316806120d5576120d5611d4b565b8060ff8416069150509291505056fea2646970667358221220d1924b9a197f13d10f4bb270e8f5234a5a64e940f06c58e74ef02b910004231864736f6c634300081b0033",
  "linkReferences": {},
  "deployedLinkReferences": {}
}